{
  "address": "0xEA443dC503e10d5AaA3F7859559f21ECA13F0844",
  "abi": [
    {
      "inputs": [
        {
          "internalType": "string",
          "name": "name",
          "type": "string"
        },
        {
          "internalType": "string",
          "name": "symbol",
          "type": "string"
        }
      ],
      "stateMutability": "nonpayable",
      "type": "constructor"
    },
    {
      "inputs": [
        {
          "internalType": "address",
          "name": "spender",
          "type": "address"
        },
        {
          "internalType": "uint256",
          "name": "allowance",
          "type": "uint256"
        },
        {
          "internalType": "uint256",
          "name": "needed",
          "type": "uint256"
        }
      ],
      "name": "ERC20InsufficientAllowance",
      "type": "error"
    },
    {
      "inputs": [
        {
          "internalType": "address",
          "name": "sender",
          "type": "address"
        },
        {
          "internalType": "uint256",
          "name": "balance",
          "type": "uint256"
        },
        {
          "internalType": "uint256",
          "name": "needed",
          "type": "uint256"
        }
      ],
      "name": "ERC20InsufficientBalance",
      "type": "error"
    },
    {
      "inputs": [
        {
          "internalType": "address",
          "name": "approver",
          "type": "address"
        }
      ],
      "name": "ERC20InvalidApprover",
      "type": "error"
    },
    {
      "inputs": [
        {
          "internalType": "address",
          "name": "receiver",
          "type": "address"
        }
      ],
      "name": "ERC20InvalidReceiver",
      "type": "error"
    },
    {
      "inputs": [
        {
          "internalType": "address",
          "name": "sender",
          "type": "address"
        }
      ],
      "name": "ERC20InvalidSender",
      "type": "error"
    },
    {
      "inputs": [
        {
          "internalType": "address",
          "name": "spender",
          "type": "address"
        }
      ],
      "name": "ERC20InvalidSpender",
      "type": "error"
    },
    {
      "anonymous": false,
      "inputs": [
        {
          "indexed": true,
          "internalType": "address",
          "name": "owner",
          "type": "address"
        },
        {
          "indexed": true,
          "internalType": "address",
          "name": "spender",
          "type": "address"
        },
        {
          "indexed": false,
          "internalType": "uint256",
          "name": "value",
          "type": "uint256"
        }
      ],
      "name": "Approval",
      "type": "event"
    },
    {
      "anonymous": false,
      "inputs": [
        {
          "indexed": true,
          "internalType": "address",
          "name": "from",
          "type": "address"
        },
        {
          "indexed": true,
          "internalType": "address",
          "name": "to",
          "type": "address"
        },
        {
          "indexed": false,
          "internalType": "uint256",
          "name": "value",
          "type": "uint256"
        }
      ],
      "name": "Transfer",
      "type": "event"
    },
    {
      "stateMutability": "payable",
      "type": "fallback"
    },
    {
      "inputs": [
        {
          "internalType": "address",
          "name": "owner",
          "type": "address"
        },
        {
          "internalType": "address",
          "name": "spender",
          "type": "address"
        }
      ],
      "name": "allowance",
      "outputs": [
        {
          "internalType": "uint256",
          "name": "",
          "type": "uint256"
        }
      ],
      "stateMutability": "view",
      "type": "function"
    },
    {
      "inputs": [
        {
          "internalType": "address",
          "name": "spender",
          "type": "address"
        },
        {
          "internalType": "uint256",
          "name": "value",
          "type": "uint256"
        }
      ],
      "name": "approve",
      "outputs": [
        {
          "internalType": "bool",
          "name": "",
          "type": "bool"
        }
      ],
      "stateMutability": "nonpayable",
      "type": "function"
    },
    {
      "inputs": [
        {
          "internalType": "address",
          "name": "account",
          "type": "address"
        }
      ],
      "name": "balanceOf",
      "outputs": [
        {
          "internalType": "uint256",
          "name": "",
          "type": "uint256"
        }
      ],
      "stateMutability": "view",
      "type": "function"
    },
    {
      "inputs": [],
      "name": "decimals",
      "outputs": [
        {
          "internalType": "uint8",
          "name": "",
          "type": "uint8"
        }
      ],
      "stateMutability": "pure",
      "type": "function"
    },
    {
      "inputs": [
        {
          "internalType": "address",
          "name": "receiver",
          "type": "address"
        }
      ],
      "name": "mint",
      "outputs": [],
      "stateMutability": "nonpayable",
      "type": "function"
    },
    {
      "inputs": [],
      "name": "name",
      "outputs": [
        {
          "internalType": "string",
          "name": "",
          "type": "string"
        }
      ],
      "stateMutability": "view",
      "type": "function"
    },
    {
      "inputs": [],
      "name": "symbol",
      "outputs": [
        {
          "internalType": "string",
          "name": "",
          "type": "string"
        }
      ],
      "stateMutability": "view",
      "type": "function"
    },
    {
      "inputs": [],
      "name": "totalSupply",
      "outputs": [
        {
          "internalType": "uint256",
          "name": "",
          "type": "uint256"
        }
      ],
      "stateMutability": "view",
      "type": "function"
    },
    {
      "inputs": [
        {
          "internalType": "address",
          "name": "to",
          "type": "address"
        },
        {
          "internalType": "uint256",
          "name": "value",
          "type": "uint256"
        }
      ],
      "name": "transfer",
      "outputs": [
        {
          "internalType": "bool",
          "name": "",
          "type": "bool"
        }
      ],
      "stateMutability": "nonpayable",
      "type": "function"
    },
    {
      "inputs": [
        {
          "internalType": "address",
          "name": "from",
          "type": "address"
        },
        {
          "internalType": "address",
          "name": "to",
          "type": "address"
        },
        {
          "internalType": "uint256",
          "name": "value",
          "type": "uint256"
        }
      ],
      "name": "transferFrom",
      "outputs": [
        {
          "internalType": "bool",
          "name": "",
          "type": "bool"
        }
      ],
      "stateMutability": "nonpayable",
      "type": "function"
    },
    {
      "stateMutability": "payable",
      "type": "receive"
    }
  ],
  "transactionHash": "0x7db0e3d312309d263b034e29993e6e1f30976bfaa4b29b04b33abef4a985ba4f",
  "args": [
    "USD Tether",
    "USDT"
  ],
  "numDeployments": 6,
  "solcInputHash": "1e235115a4c0e04b40fa3da3f3e5a400",
  "bytecode": "0x60806040523480156200001157600080fd5b5060405162001d5c38038062001d5c833981810160405281019062000037919062000502565b818181600390816200004a9190620007d2565b5080600490816200005c9190620007d2565b505050620000a13362000074620000a960201b60201c565b60ff16600a62000085919062000a3c565b620f424062000095919062000a8d565b620000b260201b60201c565b505062000be0565b60006006905090565b600073ffffffffffffffffffffffffffffffffffffffff168273ffffffffffffffffffffffffffffffffffffffff1603620001275760006040517fec442f050000000000000000000000000000000000000000000000000000000081526004016200011e919062000b1d565b60405180910390fd5b6200013b600083836200013f60201b60201c565b5050565b600073ffffffffffffffffffffffffffffffffffffffff168373ffffffffffffffffffffffffffffffffffffffff16036200019557806002600082825462000188919062000b3a565b925050819055506200026b565b60008060008573ffffffffffffffffffffffffffffffffffffffff1673ffffffffffffffffffffffffffffffffffffffff1681526020019081526020016000205490508181101562000224578381836040517fe450d38c0000000000000000000000000000000000000000000000000000000081526004016200021b9392919062000b86565b60405180910390fd5b8181036000808673ffffffffffffffffffffffffffffffffffffffff1673ffffffffffffffffffffffffffffffffffffffff16815260200190815260200160002081905550505b600073ffffffffffffffffffffffffffffffffffffffff168273ffffffffffffffffffffffffffffffffffffffff1603620002b6578060026000828254039250508190555062000303565b806000808473ffffffffffffffffffffffffffffffffffffffff1673ffffffffffffffffffffffffffffffffffffffff168152602001908152602001600020600082825401925050819055505b8173ffffffffffffffffffffffffffffffffffffffff168373ffffffffffffffffffffffffffffffffffffffff167fddf252ad1be2c89b69c2b068fc378daa952ba7f163c4a11628f55a4df523b3ef8360405162000362919062000bc3565b60405180910390a3505050565b6000604051905090565b600080fd5b600080fd5b600080fd5b600080fd5b6000601f19601f8301169050919050565b7f4e487b7100000000000000000000000000000000000000000000000000000000600052604160045260246000fd5b620003d8826200038d565b810181811067ffffffffffffffff82111715620003fa57620003f96200039e565b5b80604052505050565b60006200040f6200036f565b90506200041d8282620003cd565b919050565b600067ffffffffffffffff82111562000440576200043f6200039e565b5b6200044b826200038d565b9050602081019050919050565b60005b83811015620004785780820151818401526020810190506200045b565b60008484015250505050565b60006200049b620004958462000422565b62000403565b905082815260208101848484011115620004ba57620004b962000388565b5b620004c784828562000458565b509392505050565b600082601f830112620004e757620004e662000383565b5b8151620004f984826020860162000484565b91505092915050565b600080604083850312156200051c576200051b62000379565b5b600083015167ffffffffffffffff8111156200053d576200053c6200037e565b5b6200054b85828601620004cf565b925050602083015167ffffffffffffffff8111156200056f576200056e6200037e565b5b6200057d85828601620004cf565b9150509250929050565b600081519050919050565b7f4e487b7100000000000000000000000000000000000000000000000000000000600052602260045260246000fd5b60006002820490506001821680620005da57607f821691505b602082108103620005f057620005ef62000592565b5b50919050565b60008190508160005260206000209050919050565b60006020601f8301049050919050565b600082821b905092915050565b6000600883026200065a7fffffffffffffffffffffffffffffffffffffffffffffffffffffffffffffffff826200061b565b6200066686836200061b565b95508019841693508086168417925050509392505050565b6000819050919050565b6000819050919050565b6000620006b3620006ad620006a7846200067e565b62000688565b6200067e565b9050919050565b6000819050919050565b620006cf8362000692565b620006e7620006de82620006ba565b84845462000628565b825550505050565b600090565b620006fe620006ef565b6200070b818484620006c4565b505050565b5b81811015620007335762000727600082620006f4565b60018101905062000711565b5050565b601f82111562000782576200074c81620005f6565b62000757846200060b565b8101602085101562000767578190505b6200077f62000776856200060b565b83018262000710565b50505b505050565b600082821c905092915050565b6000620007a76000198460080262000787565b1980831691505092915050565b6000620007c2838362000794565b9150826002028217905092915050565b620007dd8262000587565b67ffffffffffffffff811115620007f957620007f86200039e565b5b620008058254620005c1565b6200081282828562000737565b600060209050601f8311600181146200084a576000841562000835578287015190505b620008418582620007b4565b865550620008b1565b601f1984166200085a86620005f6565b60005b8281101562000884578489015182556001820191506020850194506020810190506200085d565b86831015620008a45784890151620008a0601f89168262000794565b8355505b6001600288020188555050505b505050505050565b7f4e487b7100000000000000000000000000000000000000000000000000000000600052601160045260246000fd5b60008160011c9050919050565b6000808291508390505b600185111562000947578086048111156200091f576200091e620008b9565b5b60018516156200092f5780820291505b80810290506200093f85620008e8565b9450620008ff565b94509492505050565b60008262000962576001905062000a35565b8162000972576000905062000a35565b81600181146200098b57600281146200099657620009cc565b600191505062000a35565b60ff841115620009ab57620009aa620008b9565b5b8360020a915084821115620009c557620009c4620008b9565b5b5062000a35565b5060208310610133831016604e8410600b841016171562000a065782820a90508381111562000a0057620009ff620008b9565b5b62000a35565b62000a158484846001620008f5565b9250905081840481111562000a2f5762000a2e620008b9565b5b81810290505b9392505050565b600062000a49826200067e565b915062000a56836200067e565b925062000a857fffffffffffffffffffffffffffffffffffffffffffffffffffffffffffffffff848462000950565b905092915050565b600062000a9a826200067e565b915062000aa7836200067e565b925082820262000ab7816200067e565b9150828204841483151762000ad15762000ad0620008b9565b5b5092915050565b600073ffffffffffffffffffffffffffffffffffffffff82169050919050565b600062000b058262000ad8565b9050919050565b62000b178162000af8565b82525050565b600060208201905062000b34600083018462000b0c565b92915050565b600062000b47826200067e565b915062000b54836200067e565b925082820190508082111562000b6f5762000b6e620008b9565b5b92915050565b62000b80816200067e565b82525050565b600060608201905062000b9d600083018662000b0c565b62000bac602083018562000b75565b62000bbb604083018462000b75565b949350505050565b600060208201905062000bda600083018462000b75565b92915050565b61116c8062000bf06000396000f3fe6080604052600436106100955760003560e01c80636a627842116100595780636a6278421461019957806370a08231146101c257806395d89b41146101ff578063a9059cbb1461022a578063dd62ed3e146102675761009c565b806306fdde031461009e578063095ea7b3146100c957806318160ddd1461010657806323b872dd14610131578063313ce5671461016e5761009c565b3661009c57005b005b3480156100aa57600080fd5b506100b36102a4565b6040516100c09190610c00565b60405180910390f35b3480156100d557600080fd5b506100f060048036038101906100eb9190610cbb565b610336565b6040516100fd9190610d16565b60405180910390f35b34801561011257600080fd5b5061011b610359565b6040516101289190610d40565b60405180910390f35b34801561013d57600080fd5b5061015860048036038101906101539190610d5b565b610363565b6040516101659190610d16565b60405180910390f35b34801561017a57600080fd5b50610183610392565b6040516101909190610dca565b60405180910390f35b3480156101a557600080fd5b506101c060048036038101906101bb9190610de5565b61039b565b005b3480156101ce57600080fd5b506101e960048036038101906101e49190610de5565b6103cc565b6040516101f69190610d40565b60405180910390f35b34801561020b57600080fd5b50610214610414565b6040516102219190610c00565b60405180910390f35b34801561023657600080fd5b50610251600480360381019061024c9190610cbb565b6104a6565b60405161025e9190610d16565b60405180910390f35b34801561027357600080fd5b5061028e60048036038101906102899190610e12565b6104c9565b60405161029b9190610d40565b60405180910390f35b6060600380546102b390610e81565b80601f01602080910402602001604051908101604052809291908181526020018280546102df90610e81565b801561032c5780601f106103015761010080835404028352916020019161032c565b820191906000526020600020905b81548152906001019060200180831161030f57829003601f168201915b5050505050905090565b600080610341610550565b905061034e818585610558565b600191505092915050565b6000600254905090565b60008061036e610550565b905061037b85828561056a565b6103868585856105fe565b60019150509392505050565b60006006905090565b6103c9816103a7610392565b60ff16600a6103b69190611014565b620f42406103c4919061105f565b6106f2565b50565b60008060008373ffffffffffffffffffffffffffffffffffffffff1673ffffffffffffffffffffffffffffffffffffffff168152602001908152602001600020549050919050565b60606004805461042390610e81565b80601f016020809104026020016040519081016040528092919081815260200182805461044f90610e81565b801561049c5780601f106104715761010080835404028352916020019161049c565b820191906000526020600020905b81548152906001019060200180831161047f57829003601f168201915b5050505050905090565b6000806104b1610550565b90506104be8185856105fe565b600191505092915050565b6000600160008473ffffffffffffffffffffffffffffffffffffffff1673ffffffffffffffffffffffffffffffffffffffff16815260200190815260200160002060008373ffffffffffffffffffffffffffffffffffffffff1673ffffffffffffffffffffffffffffffffffffffff16815260200190815260200160002054905092915050565b600033905090565b6105658383836001610774565b505050565b600061057684846104c9565b90507fffffffffffffffffffffffffffffffffffffffffffffffffffffffffffffffff81146105f857818110156105e8578281836040517ffb8f41b20000000000000000000000000000000000000000000000000000000081526004016105df939291906110b0565b60405180910390fd5b6105f784848484036000610774565b5b50505050565b600073ffffffffffffffffffffffffffffffffffffffff168373ffffffffffffffffffffffffffffffffffffffff16036106705760006040517f96c6fd1e00000000000000000000000000000000000000000000000000000000815260040161066791906110e7565b60405180910390fd5b600073ffffffffffffffffffffffffffffffffffffffff168273ffffffffffffffffffffffffffffffffffffffff16036106e25760006040517fec442f050000000000000000000000000000000000000000000000000000000081526004016106d991906110e7565b60405180910390fd5b6106ed83838361094b565b505050565b600073ffffffffffffffffffffffffffffffffffffffff168273ffffffffffffffffffffffffffffffffffffffff16036107645760006040517fec442f0500000000000000000000000000000000000000000000000000000000815260040161075b91906110e7565b60405180910390fd5b6107706000838361094b565b5050565b600073ffffffffffffffffffffffffffffffffffffffff168473ffffffffffffffffffffffffffffffffffffffff16036107e65760006040517fe602df050000000000000000000000000000000000000000000000000000000081526004016107dd91906110e7565b60405180910390fd5b600073ffffffffffffffffffffffffffffffffffffffff168373ffffffffffffffffffffffffffffffffffffffff16036108585760006040517f94280d6200000000000000000000000000000000000000000000000000000000815260040161084f91906110e7565b60405180910390fd5b81600160008673ffffffffffffffffffffffffffffffffffffffff1673ffffffffffffffffffffffffffffffffffffffff16815260200190815260200160002060008573ffffffffffffffffffffffffffffffffffffffff1673ffffffffffffffffffffffffffffffffffffffff168152602001908152602001600020819055508015610945578273ffffffffffffffffffffffffffffffffffffffff168473ffffffffffffffffffffffffffffffffffffffff167f8c5be1e5ebec7d5bd14f71427d1e84f3dd0314c0f7b2291e5b200ac8c7c3b9258460405161093c9190610d40565b60405180910390a35b50505050565b600073ffffffffffffffffffffffffffffffffffffffff168373ffffffffffffffffffffffffffffffffffffffff160361099d5780600260008282546109919190611102565b92505081905550610a70565b60008060008573ffffffffffffffffffffffffffffffffffffffff1673ffffffffffffffffffffffffffffffffffffffff16815260200190815260200160002054905081811015610a29578381836040517fe450d38c000000000000000000000000000000000000000000000000000000008152600401610a20939291906110b0565b60405180910390fd5b8181036000808673ffffffffffffffffffffffffffffffffffffffff1673ffffffffffffffffffffffffffffffffffffffff16815260200190815260200160002081905550505b600073ffffffffffffffffffffffffffffffffffffffff168273ffffffffffffffffffffffffffffffffffffffff1603610ab95780600260008282540392505081905550610b06565b806000808473ffffffffffffffffffffffffffffffffffffffff1673ffffffffffffffffffffffffffffffffffffffff168152602001908152602001600020600082825401925050819055505b8173ffffffffffffffffffffffffffffffffffffffff168373ffffffffffffffffffffffffffffffffffffffff167fddf252ad1be2c89b69c2b068fc378daa952ba7f163c4a11628f55a4df523b3ef83604051610b639190610d40565b60405180910390a3505050565b600081519050919050565b600082825260208201905092915050565b60005b83811015610baa578082015181840152602081019050610b8f565b60008484015250505050565b6000601f19601f8301169050919050565b6000610bd282610b70565b610bdc8185610b7b565b9350610bec818560208601610b8c565b610bf581610bb6565b840191505092915050565b60006020820190508181036000830152610c1a8184610bc7565b905092915050565b600080fd5b600073ffffffffffffffffffffffffffffffffffffffff82169050919050565b6000610c5282610c27565b9050919050565b610c6281610c47565b8114610c6d57600080fd5b50565b600081359050610c7f81610c59565b92915050565b6000819050919050565b610c9881610c85565b8114610ca357600080fd5b50565b600081359050610cb581610c8f565b92915050565b60008060408385031215610cd257610cd1610c22565b5b6000610ce085828601610c70565b9250506020610cf185828601610ca6565b9150509250929050565b60008115159050919050565b610d1081610cfb565b82525050565b6000602082019050610d2b6000830184610d07565b92915050565b610d3a81610c85565b82525050565b6000602082019050610d556000830184610d31565b92915050565b600080600060608486031215610d7457610d73610c22565b5b6000610d8286828701610c70565b9350506020610d9386828701610c70565b9250506040610da486828701610ca6565b9150509250925092565b600060ff82169050919050565b610dc481610dae565b82525050565b6000602082019050610ddf6000830184610dbb565b92915050565b600060208284031215610dfb57610dfa610c22565b5b6000610e0984828501610c70565b91505092915050565b60008060408385031215610e2957610e28610c22565b5b6000610e3785828601610c70565b9250506020610e4885828601610c70565b9150509250929050565b7f4e487b7100000000000000000000000000000000000000000000000000000000600052602260045260246000fd5b60006002820490506001821680610e9957607f821691505b602082108103610eac57610eab610e52565b5b50919050565b7f4e487b7100000000000000000000000000000000000000000000000000000000600052601160045260246000fd5b60008160011c9050919050565b6000808291508390505b6001851115610f3857808604811115610f1457610f13610eb2565b5b6001851615610f235780820291505b8081029050610f3185610ee1565b9450610ef8565b94509492505050565b600082610f51576001905061100d565b81610f5f576000905061100d565b8160018114610f755760028114610f7f57610fae565b600191505061100d565b60ff841115610f9157610f90610eb2565b5b8360020a915084821115610fa857610fa7610eb2565b5b5061100d565b5060208310610133831016604e8410600b8410161715610fe35782820a905083811115610fde57610fdd610eb2565b5b61100d565b610ff08484846001610eee565b9250905081840481111561100757611006610eb2565b5b81810290505b9392505050565b600061101f82610c85565b915061102a83610c85565b92506110577fffffffffffffffffffffffffffffffffffffffffffffffffffffffffffffffff8484610f41565b905092915050565b600061106a82610c85565b915061107583610c85565b925082820261108381610c85565b9150828204841483151761109a57611099610eb2565b5b5092915050565b6110aa81610c47565b82525050565b60006060820190506110c560008301866110a1565b6110d26020830185610d31565b6110df6040830184610d31565b949350505050565b60006020820190506110fc60008301846110a1565b92915050565b600061110d82610c85565b915061111883610c85565b92508282019050808211156111305761112f610eb2565b5b9291505056fea26469706673582212200267c23c21a831cc2fff693d93c102ecb941ebc07c4f1a436ef06451f14b751a64736f6c63430008140033",
  "devdoc": {
    "errors": {
      "ERC20InsufficientAllowance(address,uint256,uint256)": [
        {
          "details": "Indicates a failure with the `spender`s `allowance`. Used in transfers.",
          "params": {
            "allowance": "Amount of tokens a `spender` is allowed to operate with.",
            "needed": "Minimum amount required to perform a transfer.",
            "spender": "Address that may be allowed to operate on tokens without being their owner."
          }
        }
      ],
      "ERC20InsufficientBalance(address,uint256,uint256)": [
        {
          "details": "Indicates an error related to the current `balance` of a `sender`. Used in transfers.",
          "params": {
            "balance": "Current balance for the interacting account.",
            "needed": "Minimum amount required to perform a transfer.",
            "sender": "Address whose tokens are being transferred."
          }
        }
      ],
      "ERC20InvalidApprover(address)": [
        {
          "details": "Indicates a failure with the `approver` of a token to be approved. Used in approvals.",
          "params": {
            "approver": "Address initiating an approval operation."
          }
        }
      ],
      "ERC20InvalidReceiver(address)": [
        {
          "details": "Indicates a failure with the token `receiver`. Used in transfers.",
          "params": {
            "receiver": "Address to which tokens are being transferred."
          }
        }
      ],
      "ERC20InvalidSender(address)": [
        {
          "details": "Indicates a failure with the token `sender`. Used in transfers.",
          "params": {
            "sender": "Address whose tokens are being transferred."
          }
        }
      ],
      "ERC20InvalidSpender(address)": [
        {
          "details": "Indicates a failure with the `spender` to be approved. Used in approvals.",
          "params": {
            "spender": "Address that may be allowed to operate on tokens without being their owner."
          }
        }
      ]
    },
    "events": {
      "Approval(address,address,uint256)": {
        "details": "Emitted when the allowance of a `spender` for an `owner` is set by a call to {approve}. `value` is the new allowance."
      },
      "Transfer(address,address,uint256)": {
        "details": "Emitted when `value` tokens are moved from one account (`from`) to another (`to`). Note that `value` may be zero."
      }
    },
    "kind": "dev",
    "methods": {
      "allowance(address,address)": {
        "details": "See {IERC20-allowance}."
      },
      "approve(address,uint256)": {
        "details": "See {IERC20-approve}. NOTE: If `value` is the maximum `uint256`, the allowance is not updated on `transferFrom`. This is semantically equivalent to an infinite approval. Requirements: - `spender` cannot be the zero address."
      },
      "balanceOf(address)": {
        "details": "See {IERC20-balanceOf}."
      },
      "decimals()": {
        "details": "Returns the number of decimals used to get its user representation. For example, if `decimals` equals `2`, a balance of `505` tokens should be displayed to a user as `5.05` (`505 / 10 ** 2`). Tokens usually opt for a value of 18, imitating the relationship between Ether and Wei. This is the default value returned by this function, unless it's overridden. NOTE: This information is only used for _display_ purposes: it in no way affects any of the arithmetic of the contract, including {IERC20-balanceOf} and {IERC20-transfer}."
      },
      "name()": {
        "details": "Returns the name of the token."
      },
      "symbol()": {
        "details": "Returns the symbol of the token, usually a shorter version of the name."
      },
      "totalSupply()": {
        "details": "See {IERC20-totalSupply}."
      },
      "transfer(address,uint256)": {
        "details": "See {IERC20-transfer}. Requirements: - `to` cannot be the zero address. - the caller must have a balance of at least `value`."
      },
      "transferFrom(address,address,uint256)": {
        "details": "See {IERC20-transferFrom}. Emits an {Approval} event indicating the updated allowance. This is not required by the EIP. See the note at the beginning of {ERC20}. NOTE: Does not update the allowance if the current allowance is the maximum `uint256`. Requirements: - `from` and `to` cannot be the zero address. - `from` must have a balance of at least `value`. - the caller must have allowance for ``from``'s tokens of at least `value`."
      }
    },
    "version": 1
  },
  "userdoc": {
    "kind": "user",
    "methods": {},
    "version": 1
  },
  "storageLayout": {
    "storage": [
      {
        "astId": 307,
        "contract": "contracts/MockToken.sol:MockToken",
        "label": "_balances",
        "offset": 0,
        "slot": "0",
        "type": "t_mapping(t_address,t_uint256)"
      },
      {
        "astId": 313,
        "contract": "contracts/MockToken.sol:MockToken",
        "label": "_allowances",
        "offset": 0,
        "slot": "1",
        "type": "t_mapping(t_address,t_mapping(t_address,t_uint256))"
      },
      {
        "astId": 315,
        "contract": "contracts/MockToken.sol:MockToken",
        "label": "_totalSupply",
        "offset": 0,
        "slot": "2",
        "type": "t_uint256"
      },
      {
        "astId": 317,
        "contract": "contracts/MockToken.sol:MockToken",
        "label": "_name",
        "offset": 0,
        "slot": "3",
        "type": "t_string_storage"
      },
      {
        "astId": 319,
        "contract": "contracts/MockToken.sol:MockToken",
        "label": "_symbol",
        "offset": 0,
        "slot": "4",
        "type": "t_string_storage"
      }
    ],
    "types": {
      "t_address": {
        "encoding": "inplace",
        "label": "address",
        "numberOfBytes": "20"
      },
      "t_mapping(t_address,t_mapping(t_address,t_uint256))": {
        "encoding": "mapping",
        "key": "t_address",
        "label": "mapping(address => mapping(address => uint256))",
        "numberOfBytes": "32",
        "value": "t_mapping(t_address,t_uint256)"
      },
      "t_mapping(t_address,t_uint256)": {
        "encoding": "mapping",
        "key": "t_address",
        "label": "mapping(address => uint256)",
        "numberOfBytes": "32",
        "value": "t_uint256"
      },
      "t_string_storage": {
        "encoding": "bytes",
        "label": "string",
        "numberOfBytes": "32"
      },
      "t_uint256": {
        "encoding": "inplace",
        "label": "uint256",
        "numberOfBytes": "32"
      }
    }
  }
}