{
  "address": "0x5d7A7c08Fa8f2eD91A440dB4989327b79CB12B28",
  "abi": [
    {
      "inputs": [
        {
          "internalType": "address",
          "name": "_txnToken",
          "type": "address"
        },
        {
          "internalType": "uint256",
          "name": "_decimals",
          "type": "uint256"
        }
      ],
      "stateMutability": "nonpayable",
      "type": "constructor"
    },
    {
      "inputs": [
        {
          "internalType": "address",
          "name": "owner",
          "type": "address"
        }
      ],
      "name": "OwnableInvalidOwner",
      "type": "error"
    },
    {
      "inputs": [
        {
          "internalType": "address",
          "name": "account",
          "type": "address"
        }
      ],
      "name": "OwnableUnauthorizedAccount",
      "type": "error"
    },
    {
      "inputs": [],
      "name": "ThunderFi_AgreementIdInvalid",
      "type": "error"
    },
    {
      "inputs": [],
      "name": "ThunderFi_CallerNotThePurchaser",
      "type": "error"
    },
    {
      "inputs": [],
      "name": "ThunderFi_CallerNotTheSeller",
      "type": "error"
    },
    {
      "inputs": [],
      "name": "ThunderFi_InsufficientApproval",
      "type": "error"
    },
    {
      "inputs": [],
      "name": "ThunderFi_UserInvalid",
      "type": "error"
    },
    {
      "anonymous": false,
      "inputs": [
        {
          "indexed": true,
          "internalType": "address",
          "name": "seller",
          "type": "address"
        },
        {
          "indexed": true,
          "internalType": "address",
          "name": "purchaser",
          "type": "address"
        },
        {
          "indexed": false,
          "internalType": "uint256",
          "name": "timestamp",
          "type": "uint256"
        },
        {
          "indexed": false,
          "internalType": "uint256",
          "name": "status",
          "type": "uint256"
        }
      ],
      "name": "AgreementStatusUpdate",
      "type": "event"
    },
    {
      "anonymous": false,
      "inputs": [
        {
          "indexed": true,
          "internalType": "address",
          "name": "previousOwner",
          "type": "address"
        },
        {
          "indexed": true,
          "internalType": "address",
          "name": "newOwner",
          "type": "address"
        }
      ],
      "name": "OwnershipTransferred",
      "type": "event"
    },
    {
      "inputs": [],
      "name": "PLATFORM_FEE",
      "outputs": [
        {
          "internalType": "uint256",
          "name": "",
          "type": "uint256"
        }
      ],
      "stateMutability": "view",
      "type": "function"
    },
    {
      "inputs": [],
      "name": "TXN_TOKEN",
      "outputs": [
        {
          "internalType": "contract IERC20",
          "name": "",
          "type": "address"
        }
      ],
      "stateMutability": "view",
      "type": "function"
    },
    {
      "inputs": [
        {
          "internalType": "uint256",
          "name": "",
          "type": "uint256"
        }
      ],
      "name": "agreements",
      "outputs": [
        {
          "internalType": "uint256",
          "name": "status",
          "type": "uint256"
        },
        {
          "internalType": "string",
          "name": "agreementURL",
          "type": "string"
        },
        {
          "internalType": "address",
          "name": "paymentToken",
          "type": "address"
        },
        {
          "internalType": "uint256",
          "name": "amount",
          "type": "uint256"
        },
        {
          "internalType": "uint256",
          "name": "creationTimestamp",
          "type": "uint256"
        },
        {
          "internalType": "uint256",
          "name": "expiryTimestamp",
          "type": "uint256"
        },
        {
          "internalType": "address",
          "name": "seller",
          "type": "address"
        },
        {
          "internalType": "address",
          "name": "purchaser",
          "type": "address"
        }
      ],
      "stateMutability": "view",
      "type": "function"
    },
    {
      "inputs": [],
      "name": "baseURI",
      "outputs": [
        {
          "internalType": "string",
          "name": "",
          "type": "string"
        }
      ],
      "stateMutability": "view",
      "type": "function"
    },
    {
      "inputs": [
        {
          "internalType": "string",
          "name": "_agreementCID",
          "type": "string"
        },
        {
          "internalType": "address",
          "name": "_purchaser",
          "type": "address"
        },
        {
          "internalType": "address",
          "name": "_paymentToken",
          "type": "address"
        },
        {
          "internalType": "uint256",
          "name": "_amount",
          "type": "uint256"
        },
        {
          "internalType": "uint256",
          "name": "_expiry",
          "type": "uint256"
        }
      ],
      "name": "createAgreement",
      "outputs": [],
      "stateMutability": "nonpayable",
      "type": "function"
    },
    {
      "inputs": [
        {
          "internalType": "uint256",
          "name": "_id",
          "type": "uint256"
        }
      ],
      "name": "getAgreement",
      "outputs": [
        {
          "components": [
            {
              "internalType": "uint256",
              "name": "status",
              "type": "uint256"
            },
            {
              "internalType": "string",
              "name": "agreementURL",
              "type": "string"
            },
            {
              "internalType": "address",
              "name": "paymentToken",
              "type": "address"
            },
            {
              "internalType": "uint256",
              "name": "amount",
              "type": "uint256"
            },
            {
              "internalType": "uint256",
              "name": "creationTimestamp",
              "type": "uint256"
            },
            {
              "internalType": "uint256",
              "name": "expiryTimestamp",
              "type": "uint256"
            },
            {
              "internalType": "address",
              "name": "seller",
              "type": "address"
            },
            {
              "internalType": "address",
              "name": "purchaser",
              "type": "address"
            }
          ],
          "internalType": "struct Agreement",
          "name": "",
          "type": "tuple"
        }
      ],
      "stateMutability": "view",
      "type": "function"
    },
    {
      "inputs": [],
      "name": "init",
      "outputs": [],
      "stateMutability": "nonpayable",
      "type": "function"
    },
    {
      "inputs": [],
      "name": "owner",
      "outputs": [
        {
          "internalType": "address",
          "name": "",
          "type": "address"
        }
      ],
      "stateMutability": "view",
      "type": "function"
    },
    {
      "inputs": [
        {
          "internalType": "uint256",
          "name": "_id",
          "type": "uint256"
        }
      ],
      "name": "rejectAgreement",
      "outputs": [],
      "stateMutability": "nonpayable",
      "type": "function"
    },
    {
      "inputs": [],
      "name": "renounceOwnership",
      "outputs": [],
      "stateMutability": "nonpayable",
      "type": "function"
    },
    {
      "inputs": [
        {
          "internalType": "uint256",
          "name": "_id",
          "type": "uint256"
        }
      ],
      "name": "rescindAgreement",
      "outputs": [],
      "stateMutability": "nonpayable",
      "type": "function"
    },
    {
      "inputs": [
        {
          "internalType": "uint256",
          "name": "_id",
          "type": "uint256"
        }
      ],
      "name": "settleAgreement",
      "outputs": [],
      "stateMutability": "nonpayable",
      "type": "function"
    },
    {
      "inputs": [
        {
          "internalType": "address",
          "name": "newOwner",
          "type": "address"
        }
      ],
      "name": "transferOwnership",
      "outputs": [],
      "stateMutability": "nonpayable",
      "type": "function"
    },
    {
      "inputs": [
        {
          "internalType": "address",
          "name": "",
          "type": "address"
        }
      ],
      "name": "whitelisted",
      "outputs": [
        {
          "internalType": "bool",
          "name": "",
          "type": "bool"
        }
      ],
      "stateMutability": "view",
      "type": "function"
    }
  ],
  "transactionHash": "0x60165b73d9e8b64e723bb41b9a91f9c266e1ed419c84b4900647ab2e2cd8fc1f",
  "args": [
    "0xaf88d065e77c8cc2239327c5edb3a432268e5831",
    6
  ],
  "numDeployments": 1,
  "solcInputHash": "3bcb612a2bcc37e0e1856ae5c3c2f2a3",
  "bytecode": "0x60c06040526001805560405180606001604052806028815260200162002fb36028913960029081620000329190620004a3565b503480156200004057600080fd5b5060405162002fdb38038062002fdb833981810160405281019062000066919062000625565b620000766200015d60201b60201c565b600073ffffffffffffffffffffffffffffffffffffffff168173ffffffffffffffffffffffffffffffffffffffff1603620000eb5760006040517f1e4fbdf7000000000000000000000000000000000000000000000000000000008152600401620000e291906200067d565b60405180910390fd5b620000fc816200016560201b60201c565b508173ffffffffffffffffffffffffffffffffffffffff1660808173ffffffffffffffffffffffffffffffffffffffff1681525050600a81600a6200014291906200081d565b6200014e91906200089d565b60a081815250505050620008d5565b600033905090565b60008060009054906101000a900473ffffffffffffffffffffffffffffffffffffffff169050816000806101000a81548173ffffffffffffffffffffffffffffffffffffffff021916908373ffffffffffffffffffffffffffffffffffffffff1602179055508173ffffffffffffffffffffffffffffffffffffffff168173ffffffffffffffffffffffffffffffffffffffff167f8be0079c531659141344cd1fd0a4f28419497f9722a3daafe3b4186f6b6457e060405160405180910390a35050565b600081519050919050565b7f4e487b7100000000000000000000000000000000000000000000000000000000600052604160045260246000fd5b7f4e487b7100000000000000000000000000000000000000000000000000000000600052602260045260246000fd5b60006002820490506001821680620002ab57607f821691505b602082108103620002c157620002c062000263565b5b50919050565b60008190508160005260206000209050919050565b60006020601f8301049050919050565b600082821b905092915050565b6000600883026200032b7fffffffffffffffffffffffffffffffffffffffffffffffffffffffffffffffff82620002ec565b620003378683620002ec565b95508019841693508086168417925050509392505050565b6000819050919050565b6000819050919050565b6000620003846200037e62000378846200034f565b62000359565b6200034f565b9050919050565b6000819050919050565b620003a08362000363565b620003b8620003af826200038b565b848454620002f9565b825550505050565b600090565b620003cf620003c0565b620003dc81848462000395565b505050565b5b818110156200040457620003f8600082620003c5565b600181019050620003e2565b5050565b601f82111562000453576200041d81620002c7565b6200042884620002dc565b8101602085101562000438578190505b620004506200044785620002dc565b830182620003e1565b50505b505050565b600082821c905092915050565b6000620004786000198460080262000458565b1980831691505092915050565b600062000493838362000465565b9150826002028217905092915050565b620004ae8262000229565b67ffffffffffffffff811115620004ca57620004c962000234565b5b620004d6825462000292565b620004e382828562000408565b600060209050601f8311600181146200051b576000841562000506578287015190505b62000512858262000485565b86555062000582565b601f1984166200052b86620002c7565b60005b8281101562000555578489015182556001820191506020850194506020810190506200052e565b8683101562000575578489015162000571601f89168262000465565b8355505b6001600288020188555050505b505050505050565b600080fd5b600073ffffffffffffffffffffffffffffffffffffffff82169050919050565b6000620005bc826200058f565b9050919050565b620005ce81620005af565b8114620005da57600080fd5b50565b600081519050620005ee81620005c3565b92915050565b620005ff816200034f565b81146200060b57600080fd5b50565b6000815190506200061f81620005f4565b92915050565b600080604083850312156200063f576200063e6200058a565b5b60006200064f85828601620005dd565b925050602062000662858286016200060e565b9150509250929050565b6200067781620005af565b82525050565b60006020820190506200069460008301846200066c565b92915050565b7f4e487b7100000000000000000000000000000000000000000000000000000000600052601160045260246000fd5b60008160011c9050919050565b6000808291508390505b600185111562000728578086048111156200070057620006ff6200069a565b5b6001851615620007105780820291505b80810290506200072085620006c9565b9450620006e0565b94509492505050565b60008262000743576001905062000816565b8162000753576000905062000816565b81600181146200076c57600281146200077757620007ad565b600191505062000816565b60ff8411156200078c576200078b6200069a565b5b8360020a915084821115620007a657620007a56200069a565b5b5062000816565b5060208310610133831016604e8410600b8410161715620007e75782820a905083811115620007e157620007e06200069a565b5b62000816565b620007f68484846001620006d6565b9250905081840481111562000810576200080f6200069a565b5b81810290505b9392505050565b60006200082a826200034f565b915062000837836200034f565b9250620008667fffffffffffffffffffffffffffffffffffffffffffffffffffffffffffffffff848462000731565b905092915050565b7f4e487b7100000000000000000000000000000000000000000000000000000000600052601260045260246000fd5b6000620008aa826200034f565b9150620008b7836200034f565b925082620008ca57620008c96200086e565b5b828204905092915050565b60805160a0516126956200091e600039600081816102a001528181610ddd0152610f1d015260008181610ab201528181610bfd01528181610dfe0152610ed801526126956000f3fe608060405234801561001057600080fd5b50600436106100ea5760003560e01c8063b72912da1161008c578063d936547e11610066578063d936547e1461022c578063dbf094541461025c578063e1c7392a14610278578063f2fde38b14610282576100ea565b8063b72912da146101bb578063bd14de96146101d9578063c3be18d914610210576100ea565b80636c0360eb116100c85780636c0360eb14610159578063715018a61461017757806375a9f7f7146101815780638da5cb5b1461019d576100ea565b806334fbc9a1146100ef578063457c88161461010d5780634f9f6fe614610129575b600080fd5b6100f761029e565b6040516101049190611973565b60405180910390f35b610127600480360381019061012291906119ce565b6102c2565b005b610143600480360381019061013e91906119ce565b6105e8565b6040516101509190611b8b565b60405180910390f35b61016161080f565b60405161016e9190611bf7565b60405180910390f35b61017f61089d565b005b61019b600480360381019061019691906119ce565b6108b1565b005b6101a5610bd2565b6040516101b29190611c28565b60405180910390f35b6101c3610bfb565b6040516101d09190611ca2565b60405180910390f35b6101f360048036038101906101ee91906119ce565b610c1f565b604051610207989796959493929190611cbd565b60405180910390f35b61022a60048036038101906102259190611ea3565b610d4f565b005b61024660048036038101906102419190611f3a565b61127c565b6040516102539190611f82565b60405180910390f35b610276600480360381019061027191906119ce565b61129c565b005b6102806115ff565b005b61029c60048036038101906102979190611f3a565b611660565b005b7f000000000000000000000000000000000000000000000000000000000000000081565b806102cb6116e6565b8073ffffffffffffffffffffffffffffffffffffffff166004600084815260200190815260200160002060016002811061030857610307611f9d565b5b0160009054906101000a900473ffffffffffffffffffffffffffffffffffffffff1673ffffffffffffffffffffffffffffffffffffffff1614610377576040517f584cc08900000000000000000000000000000000000000000000000000000000815260040160405180910390fd5b600060036000858152602001908152602001600020905060008160060160009054906101000a900473ffffffffffffffffffffffffffffffffffffffff16905060038260000181905550604051806020016040528060008152508260010190816103e191906121ce565b5060008260020160006101000a81548173ffffffffffffffffffffffffffffffffffffffff021916908373ffffffffffffffffffffffffffffffffffffffff160217905550600082600301819055507fffffffffffffffffffffffffffffffffffffffffffffffffffffffffffffffff826005018190555060008260060160006101000a81548173ffffffffffffffffffffffffffffffffffffffff021916908373ffffffffffffffffffffffffffffffffffffffff16021790555060008260070160006101000a81548173ffffffffffffffffffffffffffffffffffffffff021916908373ffffffffffffffffffffffffffffffffffffffff1602179055506040518060400160405280600073ffffffffffffffffffffffffffffffffffffffff1673ffffffffffffffffffffffffffffffffffffffff168152602001600073ffffffffffffffffffffffffffffffffffffffff1673ffffffffffffffffffffffffffffffffffffffff1681525060046000878152602001908152602001600020906002610571929190611839565b5061057a6116e6565b73ffffffffffffffffffffffffffffffffffffffff168173ffffffffffffffffffffffffffffffffffffffff167f8e836262af53de7f9790f78dc47923ec2462d413a07c5c3f426237537fa2d3834260036040516105d99291906122db565b60405180910390a35050505050565b6105f06118b6565b81600154811061062c576040517f07da921300000000000000000000000000000000000000000000000000000000815260040160405180910390fd5b60036000848152602001908152602001600020604051806101000160405290816000820154815260200160018201805461066590611ffb565b80601f016020809104026020016040519081016040528092919081815260200182805461069190611ffb565b80156106de5780601f106106b3576101008083540402835291602001916106de565b820191906000526020600020905b8154815290600101906020018083116106c157829003601f168201915b505050505081526020016002820160009054906101000a900473ffffffffffffffffffffffffffffffffffffffff1673ffffffffffffffffffffffffffffffffffffffff1673ffffffffffffffffffffffffffffffffffffffff1681526020016003820154815260200160048201548152602001600582015481526020016006820160009054906101000a900473ffffffffffffffffffffffffffffffffffffffff1673ffffffffffffffffffffffffffffffffffffffff1673ffffffffffffffffffffffffffffffffffffffff1681526020016007820160009054906101000a900473ffffffffffffffffffffffffffffffffffffffff1673ffffffffffffffffffffffffffffffffffffffff1673ffffffffffffffffffffffffffffffffffffffff1681525050915050919050565b6002805461081c90611ffb565b80601f016020809104026020016040519081016040528092919081815260200182805461084890611ffb565b80156108955780601f1061086a57610100808354040283529160200191610895565b820191906000526020600020905b81548152906001019060200180831161087857829003601f168201915b505050505081565b6108a56116ee565b6108af6000611775565b565b806108ba6116e6565b8073ffffffffffffffffffffffffffffffffffffffff16600460008481526020019081526020016000206001600281106108f7576108f6611f9d565b5b0160009054906101000a900473ffffffffffffffffffffffffffffffffffffffff1673ffffffffffffffffffffffffffffffffffffffff1614610966576040517f584cc08900000000000000000000000000000000000000000000000000000000815260040160405180910390fd5b600060036000858152602001908152602001600020905060008160060160009054906101000a900473ffffffffffffffffffffffffffffffffffffffff16905060008260030154905060008360020160009054906101000a900473ffffffffffffffffffffffffffffffffffffffff169050818173ffffffffffffffffffffffffffffffffffffffff1663dd62ed3e6109fd6116e6565b306040518363ffffffff1660e01b8152600401610a1b929190612304565b602060405180830381865afa158015610a38573d6000803e3d6000fd5b505050506040513d601f19601f82011682018060405250810190610a5c9190612342565b14610a93576040517f1aa1992200000000000000000000000000000000000000000000000000000000815260040160405180910390fd5b600061271083610aa391906123cd565b83610aae91906123fe565b90507f000000000000000000000000000000000000000000000000000000000000000073ffffffffffffffffffffffffffffffffffffffff1663a9059cbb85836040518363ffffffff1660e01b8152600401610b0b929190612432565b6020604051808303816000875af1158015610b2a573d6000803e3d6000fd5b505050506040513d601f19601f82011682018060405250810190610b4e9190612487565b5060048560000181905550610b616116e6565b73ffffffffffffffffffffffffffffffffffffffff168473ffffffffffffffffffffffffffffffffffffffff167f8e836262af53de7f9790f78dc47923ec2462d413a07c5c3f426237537fa2d383426004604051610bc09291906124ef565b60405180910390a35050505050505050565b60008060009054906101000a900473ffffffffffffffffffffffffffffffffffffffff16905090565b7f000000000000000000000000000000000000000000000000000000000000000081565b6003602052806000526040600020600091509050806000015490806001018054610c4890611ffb565b80601f0160208091040260200160405190810160405280929190818152602001828054610c7490611ffb565b8015610cc15780601f10610c9657610100808354040283529160200191610cc1565b820191906000526020600020905b815481529060010190602001808311610ca457829003601f168201915b5050505050908060020160009054906101000a900473ffffffffffffffffffffffffffffffffffffffff16908060030154908060040154908060050154908060060160009054906101000a900473ffffffffffffffffffffffffffffffffffffffff16908060070160009054906101000a900473ffffffffffffffffffffffffffffffffffffffff16905088565b610d576116e6565b600560008273ffffffffffffffffffffffffffffffffffffffff1673ffffffffffffffffffffffffffffffffffffffff16815260200190815260200160002060009054906101000a900460ff1615610ddb576040517f3d72504e00000000000000000000000000000000000000000000000000000000815260040160405180910390fd5b7f00000000000000000000000000000000000000000000000000000000000000007f000000000000000000000000000000000000000000000000000000000000000073ffffffffffffffffffffffffffffffffffffffff1663dd62ed3e610e406116e6565b306040518363ffffffff1660e01b8152600401610e5e929190612304565b602060405180830381865afa158015610e7b573d6000803e3d6000fd5b505050506040513d601f19601f82011682018060405250810190610e9f9190612342565b14610ed6576040517f1aa1992200000000000000000000000000000000000000000000000000000000815260040160405180910390fd5b7f000000000000000000000000000000000000000000000000000000000000000073ffffffffffffffffffffffffffffffffffffffff166323b872dd610f1a6116e6565b307f00000000000000000000000000000000000000000000000000000000000000006040518463ffffffff1660e01b8152600401610f5a93929190612518565b6020604051808303816000875af1158015610f79573d6000803e3d6000fd5b505050506040513d601f19601f82011682018060405250810190610f9d9190612487565b50600060015490506000604051806101000160405280600181526020018981526020018773ffffffffffffffffffffffffffffffffffffffff168152602001868152602001428152602001858152602001610ff66116e6565b73ffffffffffffffffffffffffffffffffffffffff1681526020018873ffffffffffffffffffffffffffffffffffffffff168152509050806003600084815260200190815260200160002060008201518160000155602082015181600101908161106091906121ce565b5060408201518160020160006101000a81548173ffffffffffffffffffffffffffffffffffffffff021916908373ffffffffffffffffffffffffffffffffffffffff160217905550606082015181600301556080820151816004015560a0820151816005015560c08201518160060160006101000a81548173ffffffffffffffffffffffffffffffffffffffff021916908373ffffffffffffffffffffffffffffffffffffffff16021790555060e08201518160070160006101000a81548173ffffffffffffffffffffffffffffffffffffffff021916908373ffffffffffffffffffffffffffffffffffffffff160217905550905050604051806040016040528061116a6116e6565b73ffffffffffffffffffffffffffffffffffffffff1673ffffffffffffffffffffffffffffffffffffffff1681526020018873ffffffffffffffffffffffffffffffffffffffff1673ffffffffffffffffffffffffffffffffffffffff16815250600460008481526020019081526020016000209060026111ec929190611839565b506001600081546111fc9061254f565b919050819055508673ffffffffffffffffffffffffffffffffffffffff166112226116e6565b73ffffffffffffffffffffffffffffffffffffffff167f8e836262af53de7f9790f78dc47923ec2462d413a07c5c3f426237537fa2d38342600160405161126a9291906125d2565b60405180910390a35050505050505050565b60056020528060005260406000206000915054906101000a900460ff1681565b8060015481106112d8576040517f07da921300000000000000000000000000000000000000000000000000000000815260040160405180910390fd5b816112e16116e6565b8073ffffffffffffffffffffffffffffffffffffffff166004600084815260200190815260200160002060006002811061131e5761131d611f9d565b5b0160009054906101000a900473ffffffffffffffffffffffffffffffffffffffff1673ffffffffffffffffffffffffffffffffffffffff161461138d576040517f8d07322100000000000000000000000000000000000000000000000000000000815260040160405180910390fd5b600060036000868152602001908152602001600020905060008160070160009054906101000a900473ffffffffffffffffffffffffffffffffffffffff16905060028260000181905550604051806020016040528060008152508260010190816113f791906121ce565b5060008260020160006101000a81548173ffffffffffffffffffffffffffffffffffffffff021916908373ffffffffffffffffffffffffffffffffffffffff160217905550600082600301819055507fffffffffffffffffffffffffffffffffffffffffffffffffffffffffffffffff826005018190555060008260060160006101000a81548173ffffffffffffffffffffffffffffffffffffffff021916908373ffffffffffffffffffffffffffffffffffffffff16021790555060008260070160006101000a81548173ffffffffffffffffffffffffffffffffffffffff021916908373ffffffffffffffffffffffffffffffffffffffff1602179055506040518060400160405280600073ffffffffffffffffffffffffffffffffffffffff1673ffffffffffffffffffffffffffffffffffffffff168152602001600073ffffffffffffffffffffffffffffffffffffffff1673ffffffffffffffffffffffffffffffffffffffff1681525060046000888152602001908152602001600020906002611587929190611839565b508073ffffffffffffffffffffffffffffffffffffffff166115a76116e6565b73ffffffffffffffffffffffffffffffffffffffff167f8e836262af53de7f9790f78dc47923ec2462d413a07c5c3f426237537fa2d3834260026040516115ef929190612636565b60405180910390a3505050505050565b60016005600061160d6116e6565b73ffffffffffffffffffffffffffffffffffffffff1673ffffffffffffffffffffffffffffffffffffffff16815260200190815260200160002060006101000a81548160ff021916908315150217905550565b6116686116ee565b600073ffffffffffffffffffffffffffffffffffffffff168173ffffffffffffffffffffffffffffffffffffffff16036116da5760006040517f1e4fbdf70000000000000000000000000000000000000000000000000000000081526004016116d19190611c28565b60405180910390fd5b6116e381611775565b50565b600033905090565b6116f66116e6565b73ffffffffffffffffffffffffffffffffffffffff16611714610bd2565b73ffffffffffffffffffffffffffffffffffffffff1614611773576117376116e6565b6040517f118cdaa700000000000000000000000000000000000000000000000000000000815260040161176a9190611c28565b60405180910390fd5b565b60008060009054906101000a900473ffffffffffffffffffffffffffffffffffffffff169050816000806101000a81548173ffffffffffffffffffffffffffffffffffffffff021916908373ffffffffffffffffffffffffffffffffffffffff1602179055508173ffffffffffffffffffffffffffffffffffffffff168173ffffffffffffffffffffffffffffffffffffffff167f8be0079c531659141344cd1fd0a4f28419497f9722a3daafe3b4186f6b6457e060405160405180910390a35050565b82600281019282156118a5579160200282015b828111156118a45782518260006101000a81548173ffffffffffffffffffffffffffffffffffffffff021916908373ffffffffffffffffffffffffffffffffffffffff1602179055509160200191906001019061184c565b5b5090506118b2919061193d565b5090565b6040518061010001604052806000815260200160608152602001600073ffffffffffffffffffffffffffffffffffffffff168152602001600081526020016000815260200160008152602001600073ffffffffffffffffffffffffffffffffffffffff168152602001600073ffffffffffffffffffffffffffffffffffffffff1681525090565b5b8082111561195657600081600090555060010161193e565b5090565b6000819050919050565b61196d8161195a565b82525050565b60006020820190506119886000830184611964565b92915050565b6000604051905090565b600080fd5b600080fd5b6119ab8161195a565b81146119b657600080fd5b50565b6000813590506119c8816119a2565b92915050565b6000602082840312156119e4576119e3611998565b5b60006119f2848285016119b9565b91505092915050565b611a048161195a565b82525050565b600081519050919050565b600082825260208201905092915050565b60005b83811015611a44578082015181840152602081019050611a29565b60008484015250505050565b6000601f19601f8301169050919050565b6000611a6c82611a0a565b611a768185611a15565b9350611a86818560208601611a26565b611a8f81611a50565b840191505092915050565b600073ffffffffffffffffffffffffffffffffffffffff82169050919050565b6000611ac582611a9a565b9050919050565b611ad581611aba565b82525050565b600061010083016000830151611af460008601826119fb565b5060208301518482036020860152611b0c8282611a61565b9150506040830151611b216040860182611acc565b506060830151611b3460608601826119fb565b506080830151611b4760808601826119fb565b5060a0830151611b5a60a08601826119fb565b5060c0830151611b6d60c0860182611acc565b5060e0830151611b8060e0860182611acc565b508091505092915050565b60006020820190508181036000830152611ba58184611adb565b905092915050565b600082825260208201905092915050565b6000611bc982611a0a565b611bd38185611bad565b9350611be3818560208601611a26565b611bec81611a50565b840191505092915050565b60006020820190508181036000830152611c118184611bbe565b905092915050565b611c2281611aba565b82525050565b6000602082019050611c3d6000830184611c19565b92915050565b6000819050919050565b6000611c68611c63611c5e84611a9a565b611c43565b611a9a565b9050919050565b6000611c7a82611c4d565b9050919050565b6000611c8c82611c6f565b9050919050565b611c9c81611c81565b82525050565b6000602082019050611cb76000830184611c93565b92915050565b600061010082019050611cd3600083018b611964565b8181036020830152611ce5818a611bbe565b9050611cf46040830189611c19565b611d016060830188611964565b611d0e6080830187611964565b611d1b60a0830186611964565b611d2860c0830185611c19565b611d3560e0830184611c19565b9998505050505050505050565b600080fd5b600080fd5b7f4e487b7100000000000000000000000000000000000000000000000000000000600052604160045260246000fd5b611d8482611a50565b810181811067ffffffffffffffff82111715611da357611da2611d4c565b5b80604052505050565b6000611db661198e565b9050611dc28282611d7b565b919050565b600067ffffffffffffffff821115611de257611de1611d4c565b5b611deb82611a50565b9050602081019050919050565b82818337600083830152505050565b6000611e1a611e1584611dc7565b611dac565b905082815260208101848484011115611e3657611e35611d47565b5b611e41848285611df8565b509392505050565b600082601f830112611e5e57611e5d611d42565b5b8135611e6e848260208601611e07565b91505092915050565b611e8081611aba565b8114611e8b57600080fd5b50565b600081359050611e9d81611e77565b92915050565b600080600080600060a08688031215611ebf57611ebe611998565b5b600086013567ffffffffffffffff811115611edd57611edc61199d565b5b611ee988828901611e49565b9550506020611efa88828901611e8e565b9450506040611f0b88828901611e8e565b9350506060611f1c888289016119b9565b9250506080611f2d888289016119b9565b9150509295509295909350565b600060208284031215611f5057611f4f611998565b5b6000611f5e84828501611e8e565b91505092915050565b60008115159050919050565b611f7c81611f67565b82525050565b6000602082019050611f976000830184611f73565b92915050565b7f4e487b7100000000000000000000000000000000000000000000000000000000600052603260045260246000fd5b7f4e487b7100000000000000000000000000000000000000000000000000000000600052602260045260246000fd5b6000600282049050600182168061201357607f821691505b60208210810361202657612025611fcc565b5b50919050565b60008190508160005260206000209050919050565b60006020601f8301049050919050565b600082821b905092915050565b60006008830261208e7fffffffffffffffffffffffffffffffffffffffffffffffffffffffffffffffff82612051565b6120988683612051565b95508019841693508086168417925050509392505050565b60006120cb6120c66120c18461195a565b611c43565b61195a565b9050919050565b6000819050919050565b6120e5836120b0565b6120f96120f1826120d2565b84845461205e565b825550505050565b600090565b61210e612101565b6121198184846120dc565b505050565b5b8181101561213d57612132600082612106565b60018101905061211f565b5050565b601f821115612182576121538161202c565b61215c84612041565b8101602085101561216b578190505b61217f61217785612041565b83018261211e565b50505b505050565b600082821c905092915050565b60006121a560001984600802612187565b1980831691505092915050565b60006121be8383612194565b9150826002028217905092915050565b6121d782611a0a565b67ffffffffffffffff8111156121f0576121ef611d4c565b5b6121fa8254611ffb565b612205828285612141565b600060209050601f8311600181146122385760008415612226578287015190505b61223085826121b2565b865550612298565b601f1984166122468661202c565b60005b8281101561226e57848901518255600182019150602085019450602081019050612249565b8683101561228b5784890151612287601f891682612194565b8355505b6001600288020188555050505b505050505050565b6000819050919050565b60006122c56122c06122bb846122a0565b611c43565b61195a565b9050919050565b6122d5816122aa565b82525050565b60006040820190506122f06000830185611964565b6122fd60208301846122cc565b9392505050565b60006040820190506123196000830185611c19565b6123266020830184611c19565b9392505050565b60008151905061233c816119a2565b92915050565b60006020828403121561235857612357611998565b5b60006123668482850161232d565b91505092915050565b7f4e487b7100000000000000000000000000000000000000000000000000000000600052601260045260246000fd5b7f4e487b7100000000000000000000000000000000000000000000000000000000600052601160045260246000fd5b60006123d88261195a565b91506123e38361195a565b9250826123f3576123f261236f565b5b828204905092915050565b60006124098261195a565b91506124148361195a565b925082820390508181111561242c5761242b61239e565b5b92915050565b60006040820190506124476000830185611c19565b6124546020830184611964565b9392505050565b61246481611f67565b811461246f57600080fd5b50565b6000815190506124818161245b565b92915050565b60006020828403121561249d5761249c611998565b5b60006124ab84828501612472565b91505092915050565b6000819050919050565b60006124d96124d46124cf846124b4565b611c43565b61195a565b9050919050565b6124e9816124be565b82525050565b60006040820190506125046000830185611964565b61251160208301846124e0565b9392505050565b600060608201905061252d6000830186611c19565b61253a6020830185611c19565b6125476040830184611964565b949350505050565b600061255a8261195a565b91507fffffffffffffffffffffffffffffffffffffffffffffffffffffffffffffffff820361258c5761258b61239e565b5b600182019050919050565b6000819050919050565b60006125bc6125b76125b284612597565b611c43565b61195a565b9050919050565b6125cc816125a1565b82525050565b60006040820190506125e76000830185611964565b6125f460208301846125c3565b9392505050565b6000819050919050565b600061262061261b612616846125fb565b611c43565b61195a565b9050919050565b61263081612605565b82525050565b600060408201905061264b6000830185611964565b6126586020830184612627565b939250505056fea264697066735822122070858b5ff3ed4a85bad27e0e8559d3c7014f8bcac182b1e5d7e878f880e989d264736f6c6343000814003368747470733a2f2f676174657761792e6c69676874686f7573652e73746f726167652f697066732f",
  "devdoc": {
    "errors": {
      "OwnableInvalidOwner(address)": [
        {
          "details": "The owner is not a valid owner account. (eg. `address(0)`)"
        }
      ],
      "OwnableUnauthorizedAccount(address)": [
        {
          "details": "The caller account is not authorized to perform an operation."
        }
      ]
    },
    "events": {
      "AgreementStatusUpdate(address,address,uint256,uint256)": {
        "details": "STATUS -"
      }
    },
    "kind": "dev",
    "methods": {
      "owner()": {
        "details": "Returns the address of the current owner."
      },
      "renounceOwnership()": {
        "details": "Leaves the contract without owner. It will not be possible to call `onlyOwner` functions. Can only be called by the current owner. NOTE: Renouncing ownership will leave the contract without an owner, thereby disabling any functionality that is only available to the owner."
      },
      "transferOwnership(address)": {
        "details": "Transfers ownership of the contract to a new account (`newOwner`). Can only be called by the current owner."
      }
    },
    "version": 1
  },
  "userdoc": {
    "kind": "user",
    "methods": {
      "settleAgreement(uint256)": {
        "notice": "During settlement, a fee of 0.01% of the owed amount is deducted."
      }
    },
    "version": 1
  },
  "storageLayout": {
    "storage": [
      {
        "astId": 8,
        "contract": "contracts/ThunderFi.sol:ThunderFi",
        "label": "_owner",
        "offset": 0,
        "slot": "0",
        "type": "t_address"
      },
      {
        "astId": 294,
        "contract": "contracts/ThunderFi.sol:ThunderFi",
        "label": "idCounter",
        "offset": 0,
        "slot": "1",
        "type": "t_uint256"
      },
      {
        "astId": 297,
        "contract": "contracts/ThunderFi.sol:ThunderFi",
        "label": "baseURI",
        "offset": 0,
        "slot": "2",
        "type": "t_string_storage"
      },
      {
        "astId": 307,
        "contract": "contracts/ThunderFi.sol:ThunderFi",
        "label": "agreements",
        "offset": 0,
        "slot": "3",
        "type": "t_mapping(t_uint256,t_struct(Agreement)277_storage)"
      },
      {
        "astId": 313,
        "contract": "contracts/ThunderFi.sol:ThunderFi",
        "label": "agreeementToPartiesInvolved",
        "offset": 0,
        "slot": "4",
        "type": "t_mapping(t_uint256,t_array(t_address)2_storage)"
      },
      {
        "astId": 317,
        "contract": "contracts/ThunderFi.sol:ThunderFi",
        "label": "whitelisted",
        "offset": 0,
        "slot": "5",
        "type": "t_mapping(t_address,t_bool)"
      }
    ],
    "types": {
      "t_address": {
        "encoding": "inplace",
        "label": "address",
        "numberOfBytes": "20"
      },
      "t_array(t_address)2_storage": {
        "base": "t_address",
        "encoding": "inplace",
        "label": "address[2]",
        "numberOfBytes": "64"
      },
      "t_bool": {
        "encoding": "inplace",
        "label": "bool",
        "numberOfBytes": "1"
      },
      "t_mapping(t_address,t_bool)": {
        "encoding": "mapping",
        "key": "t_address",
        "label": "mapping(address => bool)",
        "numberOfBytes": "32",
        "value": "t_bool"
      },
      "t_mapping(t_uint256,t_array(t_address)2_storage)": {
        "encoding": "mapping",
        "key": "t_uint256",
        "label": "mapping(uint256 => address[2])",
        "numberOfBytes": "32",
        "value": "t_array(t_address)2_storage"
      },
      "t_mapping(t_uint256,t_struct(Agreement)277_storage)": {
        "encoding": "mapping",
        "key": "t_uint256",
        "label": "mapping(uint256 => struct Agreement)",
        "numberOfBytes": "32",
        "value": "t_struct(Agreement)277_storage"
      },
      "t_string_storage": {
        "encoding": "bytes",
        "label": "string",
        "numberOfBytes": "32"
      },
      "t_struct(Agreement)277_storage": {
        "encoding": "inplace",
        "label": "struct Agreement",
        "members": [
          {
            "astId": 262,
            "contract": "contracts/ThunderFi.sol:ThunderFi",
            "label": "status",
            "offset": 0,
            "slot": "0",
            "type": "t_uint256"
          },
          {
            "astId": 264,
            "contract": "contracts/ThunderFi.sol:ThunderFi",
            "label": "agreementURL",
            "offset": 0,
            "slot": "1",
            "type": "t_string_storage"
          },
          {
            "astId": 266,
            "contract": "contracts/ThunderFi.sol:ThunderFi",
            "label": "paymentToken",
            "offset": 0,
            "slot": "2",
            "type": "t_address"
          },
          {
            "astId": 268,
            "contract": "contracts/ThunderFi.sol:ThunderFi",
            "label": "amount",
            "offset": 0,
            "slot": "3",
            "type": "t_uint256"
          },
          {
            "astId": 270,
            "contract": "contracts/ThunderFi.sol:ThunderFi",
            "label": "creationTimestamp",
            "offset": 0,
            "slot": "4",
            "type": "t_uint256"
          },
          {
            "astId": 272,
            "contract": "contracts/ThunderFi.sol:ThunderFi",
            "label": "expiryTimestamp",
            "offset": 0,
            "slot": "5",
            "type": "t_uint256"
          },
          {
            "astId": 274,
            "contract": "contracts/ThunderFi.sol:ThunderFi",
            "label": "seller",
            "offset": 0,
            "slot": "6",
            "type": "t_address"
          },
          {
            "astId": 276,
            "contract": "contracts/ThunderFi.sol:ThunderFi",
            "label": "purchaser",
            "offset": 0,
            "slot": "7",
            "type": "t_address"
          }
        ],
        "numberOfBytes": "256"
      },
      "t_uint256": {
        "encoding": "inplace",
        "label": "uint256",
        "numberOfBytes": "32"
      }
    }
  }
}